:020000022000DC
:1060000000000420B5620200DD620200DF620200CF
:10601000E1620200E3620200E562020000000000AB
:10602000000000000000000000000000E762020025
:10603000E962020000000000EB620200ED62020073
:1060400015540300EF62020025540300EF620200C2
:10605000EF620200EF620200EF620200EF620200F4
:10606000EF620200A965030089310300EF620200BC
:10607000EF620200EF620200EF620200EF620200D4
:10608000EF620200C1650200EF620200EF620200EF
:106090005D660200EF620200296F0300EF620200FA
:1060A000EF620200EF620200EF620200EF620200A4
:1060B000EF620200EF62020000000000000000003A
:1060C000EF620200EF620200EF620200EF62020084
:1060D000EF620200EF620200EF6202007D4D0300FA
:1060E000EF62020005560300EF62020000000000AC
:1060F00000000000EF62020000000000EF620200FA
:10610000000000000000000000000000000000008F
:10611000000000000000000000000000000000007F
:10612000000000000000000000000000000000006F
:10613000000000000000000000000000000000005F
:10614000000000000000000000000000000000004F
:10615000000000000000000000000000000000003F
:10616000000000000000000000000000000000002F
:10617000000000000000000000000000000000001F
:10618000000000000000000000000000000000000F
:1061900000000000000000000000000000000000FF
:1061A00000000000000000000000000000000000EF
:1061B00000000000000000000000000000000000DF
:1061C00000000000000000000000000000000000CF
:1061D00000000000000000000000000000000000BF
:1061E00000000000000000000000000000000000AF
:1061F000000000000000000000000000000000009F
:1062000010B5054C237833B9044B13B10448AFF3F0
:1062100000800123237010BD24AE01200000000087
:106220009080030008B5034B1BB103490348AFF34B
:10623000008008BD0000000028AE0120908003000F
:10624000154B002B08BF134B9D46A3F5803A002148
:106250008B460F461348144A121A10F015FF0F4BC5
:10626000002B00D098470E4B002B00D09847002001
:10627000002104000D000D48002802D00C48AFF3A7
:10628000008010F0C3FE200029000FF0D3FF10F0B3
:10629000A9FE00BF0000080000000420000000006C
:1062A0000000000024AE0120D0FD0120000000000D
:1062B000000000000649074A074B9B1A03DD043B18
:1062C000C858D050FBDC02F0DFFDFFF7B9FF00003B
:1062D0001881030058AD012024AE0120FEE7FEE73F
:1062E000FEE7FEE7FEE7FEE7FEE7FEE7FEE7FEE786
:1062F0001FB50021039001AA44F20100CDE901116C
:106300000BF020FF05B05DF804FB000012F0030362
:1063100010B513D10A4C22604C1CE400A4B22244F4
:10632000084C2260084A1370084A1370084A10800B
:10633000084A1180084A1846138010BD0720FCE760
:1063400048AE012044AE012042AE012050AE0120F3
:106350004CAE01204EAE012040AE0120074B084A52
:106360001B7812881846074B1B78984284BF511C33
:106370005B181B1A9BB2D31A98B2704750AE01201B
:106380004EAE012042AE01202DE9F347344D2B885B
:106390008B4206460C4617465DD302A84FF0000814
:1063A00000F8018D02F0FEFADFF8C8E02D499EF8F2
:1063B00000C00B78DAB22C4B1888824238BF013209
:1063C0005FFA8CFC38BF5FFA82F8C4453DD091F883
:1063D00000800A78D2B2904286BF0132D2B2002247
:1063E0000A709EF800301A460B789A4284BF01303A
:1063F0001B189B1A1D4A11889BB2994200D2138028
:106400009DF8070002F0F2FA4FF6FF73984524D08A
:10641000DFF864A0DAF800304FEAC80903EB09029C
:1064200043F83870A6B19CB1114B28881B682246EE
:1064300008FB0030314610F01CFEDAF800304B4407
:1064400000209C8002B0BDE8F0874FF6FF78D7E7C8
:1064500000209080F6E70920F4E70420F2E700BF6F
:106460004CAE012042AE01204EAE012040AE0120D4
:1064700044AE012050AE012048AE012007B502A86D
:10648000002300F8013D02F08DFA064A9DF807004E
:106490001368591C1CBF0133136002F0A7FA03B044
:1064A0005DF804FB54AE012007B502A8002300F8F4
:1064B000013D02F077FA064A13680BB1013B136005
:1064C0009DF8070002F092FA03B05DF804FB00BFEC
:1064D00054AE0120F8B5134E134C356825B9134B53
:1064E00022781B789A4200D1F8BD22781048114BCF
:1064F00007881B681048D2B211B203EBC10C0068C8
:1065000053F83130BCF8041002FB070098470B4BDE
:1065100022781B88D2B2934286BF531CDBB22B4633
:106520002370DAE754AE012050AE012042AE0120C4
:106530004CAE012048AE012044AE01204EAE0120F9
:10654000094A537891780133DBB2994208BF00239E
:10655000117899421FBF03705078182303FB002065
:1065600014BF04300020704758AE0120024B4FF496
:106570003C6043F001031847B079030038B50C4B79
:106580000C4C4FF40032C3F8802001254FF48033C7
:10659000C4F84833C4F808336560FFF7E7FF064BDB
:1065A000A56000241C60FFF7E1FF044B1C7038BDA0
:1065B00000E100E00010014074AF012065AF012050
:1065C000F8B51F491F4B0025C1F84051C1F844518F
:1065D000C1F84851C1F84C51C1F80051C1F80451FB
:1065E0001B684BB3D1F8044517490968641A24F0B5
:1065F0007F442F461A68A24209D8A41A15441A7C6F
:10660000DE691AB11F74D3E905209047AEB90F4B6C
:106610000F4A197813788B4205D10133DBB2022B74
:1066200008BF0023137012780A4B43F822500A4B1C
:106630004FF48012C3F80021F8BD3346DAE700BFFB
:106640000010014078AF012074AF012070AF01202D
:1066500071AF012068AF012000E100E02DE9F74FA4
:106660009E4A9F49137809789E4D99423CD0013348
:10667000DBB2022B08BF002313709B4912789B4B9F
:106680000F6853F822003B1823F07F4300220B6071
:106690002B6816461446944613B942B12B6006E0A7
:1066A000196881420ED902B12B60091A19604FF0A6
:1066B00001082B68DFF83CA200930027BEB9DFF881
:1066C0003CB260E0401A0C44D968C3F800C0D3F86B
:1066D0001CE031B13A1922F07F42C3E90121DE61A9
:1066E0001E4601227346D7E70026B046E1E734464E
:1066F000F6697D4A63681268DFF804C2A068991AD7
:1067000021F07F41614500F2A58001442160012212
:1067100022742A680023C4E90133E361002A40F0AF
:10672000A2802C60CAE75A1C9BF80210D2B2914298
:106730008BF8002004BF00228BF80020182202FBF7
:1067400003B32A6819799C68022974D003297ED082
:10675000012918D1217CB1B9DA6862601A69A26096
:106760005A69E2609B69A361614B1B78002BC0D022
:106770006160BEE79C4200F093809946DB69002B84
:10678000F8D1002323749BF800309BF801209A4233
:10679000C9D12B682FB9009A934202D1B8F1000FEA
:1067A00043D0002B79D0D3F800A0524D4E4BD5F8F2
:1067B00004751C68DFF84C813E1B98F8003026F009
:1067C0007F4603369BB94FF48033C5F84433C5F890
:1067D0000433494B4FF400324FF00109C3F88021D4
:1067E0001A60C5F80090FFF7C1FE88F80090B24526
:1067F0002CBF5444A41924F07F44C5F84045D5F873
:106800000435DB1B23F07F43E41B033324F07F4478
:10681000A3420AD9D5F80435C5F84035FFF7A6FEDE
:10682000354B4FF40032C3F80021314B00221A706F
:1068300003B0BDE8F08F13469146A0E71174D2690A
:106840000123002AFAD1002B9DD02A609BE7002368
:106850001946F6E7D31A23F07F43834234BFC31AA5
:106860000023236053E721681368994213D8591A0B
:106870001160E26155E7091AD8691A4638B1034632
:1068800018688842F7D3401A1860184613462160EA
:10689000E061DC6112E71346F2E7FFF76FFEC4E741
:1068A0004C450DD1D3692B6053B90F48019201219A
:1068B000CAF8081003600E4B1970FFF757FE019AD3
:1068C000E1692368C9F81C1011B1086803440B6022
:1068D0002B689A4218BF012753E700BF70AF012011
:1068E00071AF012078AF012074AF012068AF0120A3
:1068F00064AF01200010014000E100E058AE01202B
:10690000FEFF7F0065AF012008B5FFF737FE104B93
:1069100000200B2218809A700E4B18600E4B1870D6
:106920000E4B18700E4B4FF48012C021C3F880211B
:1069300083F814131A6002F18042A2F56F22C2F8A4
:10694000080583F81113074BD2F804251A6008BD17
:1069500058AE012078AF012070AF012071AF012047
:1069600000E100E074AF0120074B9B784BB132B1DE
:1069700028B10368187C20B959745A617047072000
:1069800070470820704700BF58AE01202DE9F7433B
:106990001D4FBB7805460E4690469BB390B3042925
:1069A0002ED9436973B3437C02A80024012B00F85D
:1069B000014D0CBF8946A14601F0F4FF0DF1060020
:1069C000FFF7BEFDD0B101230370104B4560D3F833
:1069D0000435C0E90498C0E902369DF806307B70A2
:1069E0009DF8070002F002F824B9094B4FF4801219
:1069F000C3F80021204603B0BDE8F0830424EFE78C
:106A00000724F7E70824F5E758AE012000100140FD
:106A100000E100E043681B6818470000024B5B6818
:106A200003B11847704700BF80AF0120020600F095
:106A30000F034CBF02480348DB001844704700BFF7
:106A40008CAF0120D4AF012008B5FFF7EFFF016044
:106A500009B9416008BD4B681B684360FAE7000054
:106A6000024B01465A681868104700BFD4AF012096
:106A700038B5831EDBB2062B98BF194A194C98BF54
:106A8000D25C2378A3F10203DBB288BF0022062B7D
:106A90009ABF1349CB5C00239342054603D0A2B1B1
:106AA00011480DF037F8022D01D0082D10D1012327
:106AB0002278022A01D0082A0CD101229A4202D05F
:106AC00053B10DF0A3FE257038BD0DF05DF8EAE777
:106AD0000023EDE70022F1E70DF08EFEF3E700BFA3
:106AE000B67903004CB1012058AD012073B503788D
:106AF000052B04460CD12F4AD2F88434D2F88024D6
:106B000012F0FF0F04D12C4ADBB2052B08BF14464C
:106B100023782BBB294B1D68DDB902A800F8045D62
:106B2000274D01F03FFF2A6812B9264B62881A8070
:106B30000121234802F033F89DF8040001F056FFCC
:106B4000214B1B6813B10121204698472B6802B0E6
:106B500070BD2B6860889B6898472B685D68DBE791
:106B600001A91A4801F086FF05460028EFD02368E6
:106B7000036002A8002600F8056D01F013FF114B19
:106B80000F481B88026801339B1AEB80314601F0E5
:106B9000E6FFA8809DF8030001F028FF01A90B483B
:106BA00001F092FF084B1B680146002BCFD0204616
:106BB0009847CCE700700240D079030040B1012033
:106BC00048B101201CB0012080AF012028B1012074
:106BD000FFF78CBF012806D002D3022805D07047EA
:106BE0000348FFF783BF0348FBE70348F9E700BF0B
:106BF000C4790300C8790300CC7903000148FFF78A
:106C000075BF00BFD47903002DE9F04F87B006AC03
:106C1000002644F8106D05468946924698466B68F2
:106C200000225F68294601232046B84740B98DF805
:106C30000600049004460746BE4203D805202AE019
:106C40000136ECE76B680DF10602D3F804B0294673
:106C5000012304A8D8476B680DF10702D3F804B0EC
:106C60002946012304A8D8479DF807304B459DF8D5
:106C7000063015D1544511D1109A136088F80030B0
:106C800088F801906A68023B5468294608F10202BC
:106C900004A8A047002007B0BDE8F08F0134E4B29B
:106CA0006A68023BD2F804B02946002204A8D847FB
:106CB0009DF806301F44BFE72DE9F743082305463A
:106CC0004FF484722F49304801F0C1FE002856D19C
:106CD0002E480DF0B1FD0446002835D12C4B18701C
:106CE0002C4B18602C4B0146186048222B4810F0A2
:106CF000CBF9482221462A4810F0C6F9294B3DBB62
:106D0000C3E900551D7200200CF0E8FF18B185287A
:106D100001D0FFF7EDFA244E96F80890002506F111
:106D20000908ECB2A14504D904EB440414EB0804AF
:106D300023D102A90B2301F8043D1B48FFF76AFE8B
:106D4000044608B10DF042FC204603B0BDE8F083D4
:106D500095E8070083E80700D5E73146E05CFFF7D8
:106D600073FE6378FAB2934205D9A3781344DC42E8
:106D700007F10107F1D10135D3E70027F1E703243B
:106D8000E2E700BF1EB0012028B10120D16B020054
:106D90004CB1012038B101203CB101208CAF012061
:106DA000D4AF012080AF0120F079030010B50DF0C1
:106DB000E1FC08B9082010BD0DF0E4FC04460028F1
:106DC000F8D104480CF0BCFF0028F4D0FFF790FA8B
:106DD0002046F0E7C07903000DF008BC0EF0CCB8F7
:106DE0004FF08043D3F83824920702D50348FFF7C9
:106DF0007DBED3F83824D107F4D47047D579030089
:106E000007B502A8822300F8043DFFF76FFE03B028
:106E10005DF804FB2DE9F341037A00F10904032531
:106E2000064615FB03452746AC4231D01CB394F807
:106E30000180002106E0E05CFFF7F8FD0368013106
:106E4000002B36D1CBB2984503D9A3780B44DC4252
:106E5000F1D10334E8E73146E85CFFF7F5FD6A78E5
:106E60005FFA88F39A4205D9AA781344DD4208F103
:106E70000108F0D10134337AE5B2AB4203D905EB16
:106E800045057D1901D10C4B05E04FF00008E6E700
:106E90000024F0E713681A68002AFBD102A91E60DB
:106EA0000B2301F8043D3046FFF7B4FD02B0BDE806
:106EB000F0811120FAE700BF38B10120024B1878A9
:106EC000003018BF0120704744B1012000F00F03CB
:106ED000072B10B5044604D80DF0DCFD20460EF05B
:106EE0003FF92046BDE810400EF0EAB80EF0B6B803
:106EF000014B1868704700BF38B1012070B50A4BCC
:106F00001B687BB11E7A0022D5B2B54201D31B6843
:106F1000F6E7013202EB42041C44A4798442F3D127
:106F200001B10D70184670BD38B101201146FFF750
:106F300071BD08B500F00F03082B07D8FFF776FDE9
:106F4000006818B1BDE80840FFF764BD102008BD17
:106F500038B5054B05461C6804B938BD294620469E
:106F6000FFF758FD2368F6E738B1012038B5074B25
:106F700005461C680CB9062038BD29462046FFF797
:106F800049FD0628F8D12368F3E700BF38B1012096
:106F900038B504460D460DF094FC48B1054B1B78FE
:106FA000022B05D129462046BDE838400DF08CBCA7
:106FB000082038BD4CB1012038B504460D460DF00F
:106FC00080FC48B1054B1B78022B05D12946204691
:106FD000BDE838400DF0EEBC082038BD4CB10120B2
:106FE000F8B543689B6805460C46164613B92EB1A2
:106FF000072002E098470628F9D0F8BD2B7AA34273
:1070000013D9093504EB44042C446778F3B29F424A
:1070100001D80020F1E762789A4208D9A219A37832
:10702000D05CFFF753FF0136F0E77378FFDE0023F3
:107030001B78FBE770B54368DB6805460C4603B177
:1070400098472B7AA34213D9093504EB44042C4406
:1070500000256678EBB29E4200D870BD62789A42F5
:1070600009D96219A378D05C0DF0F8FF0135F1E77A
:1070700000235B78FFDE00231B78FBE743681B6976
:1070800003B118471846704770B5084B1C6804B91F
:1070900070BD267A0025E9B2B14201D32368F5E735
:1070A00000222046FFF79CFF0135F4E738B10120AC
:1070B00070B5084B1C6804B970BD267A0025E9B28A
:1070C000B14201D32368F5E72046FFF7B3FF01354E
:1070D000F5E700BF38B1012038B50478092C054622
:1070E00020D023D8032C00F0BC8012D8012C00F053
:1070F000A68040F28D800320FFF7BAFC0220FFF744
:107100008DFC2846FFF724FF2846BDE83840FFF7EE
:10711000A7BC052CF8D0C0F0B380062C00F0BF80CF
:10712000082C13D12046FFF779FC95E0812C0ED076
:1071300005D80F2CF6D0802C44D00A2CF1E7832CF4
:107140004CD021D3842C53D0852CDDD038BD5E4863
:10715000FFF786FC5C48FFF7FBFE0D20FFF75EFCA7
:10716000FFF7A6FF00F09BFF584B1B6853B9584B25
:10717000187A00F001000DF0D1FA0120BDE8384086
:10718000FFF776BC0120F4E7FFF792FF0DF0D8FE81
:107190000020FFF76DFC4F48FFF7DAFE4D48FFF780
:1071A0005FFC0E20FFF73AFC4B4B1B78023BDBB237
:1071B000062BCBD8494AD35C002BC7D0BDE838405A
:1071C0000CF0E2BC444B1B78062B05D0072B01D0FA
:1071D000052BBBD10220D1E70820CFE73E4B1B781F
:1071E000032BB3D10DF0FEFE0028AFD00420C5E77D
:1071F000394B1B78032B05D10DF0F4FE10B10420A0
:10720000FFF736FC0DF0C8FA00289FD00620B5E73E
:10721000314B1B78032B01D0082B02D13048FFF7EC
:107220005BFF0020FFF7FAFB284B1C68002C8DD079
:1072300020462946FFF7EEFB23685C68F6E7FFF778
:1072400037FF00F023FF0220FFF712FC2046FFF774
:10725000E5FB2846FFF704FC2846BDE83840FFF769
:1072600077BE1D4B1B78082B06D10220FFF700FCD0
:107270000DF0D6FA0320EAE70520FFF7F9FBF9E75E
:107280000320FFF7CBFB1748FFF7EAFB1548FFF792
:107290005FFE114B1B78062B9CD107206EE7807890
:1072A000FFF7C4FB294643680068984700283FF46D
:1072B0004DAFA87800F00F03013B062B3FF646AF19
:1072C000BDE838400DF0C0BBD67903003CB10120C9
:1072D00080AF0120D77903004CB10120B6790300BB
:1072E000D8790300D979030073B5234D00230193A6
:1072F0002B6823B92149224801F0F6FB28602C684D
:10730000ECB1A68886B1E388B3F5006F24BF0023F3
:10731000E380E388ADF806305A1C013EE280A68087
:1073200001A8FFF7D9FE07E02046FFF7D5FE134975
:10733000134801F004FC2E60012002B070BD114B17
:1073400018680028F9D002A800F8054D01F02AFBC2
:107350000D4B0C481A88B2F5006F28BF1C801A88A4
:10736000ADF80620511C1980012101F023FC9DF885
:10737000030001F03BFBD3E750B101207CAF0120BB
:1073800028B1012048B101201CB00120C36903B11C
:1073900018477047036800221A845A62DA62C3E908
:1073A0001E22C3E9202203F134025A67704700000D
:1073B000F0B5BB4D0C7A2C700468B4F5517F00F029
:1073C000CA8200F2DA8040F22636B44200F03E82F1
:1073D0006DD840F21636B44200F0FB8126D840F258
:1073E0001336B44200F0DA81B4F5457F0BD2002C9D
:1073F00000F0C28140F21236B44200F0C581002391
:1074000003601846BFE100F0D78140F21536B44260
:10741000F5D100240AB106791655013402269C42A2
:107420000671C0F0D78140F21633AAE140F2193656
:10743000B44200F0E78114D840F21736B44200F0AD
:10744000D481B4F5467FDAD100240AB10679165505
:10745000013400269C420671C0F0D58140F21933F8
:107460008FE1B4F5487F00F0E48140F22136B44268
:10747000C5D100240AB1067916558A4E0F7A36789E
:10748000DFF824C2B74204F1010440F2548301F151
:10749000090706EB460607EB060E9C42BE5DCCF8DC
:1074A00000E00671C0F0D38140F2263369E140F27A
:1074B0003336B44200F00982B4F54D7F38D2B4F5CA
:1074C0004B7F00F0DE811CD840F22736B44200F03A
:1074D000C981B4F54A7F92D100240AB106791655C4
:1074E000714E0F7D36683678B74204F1010440F0E2
:1074F000E18102269C420671C0F0C4814FF44B73B7
:107500003FE140F22D36B44200F0C78140F22E3602
:10751000B4427FF474AF00240AB1067916550134E1
:107520000026A342067100F2EA814FF44F7328E16E
:10753000B4F54F7F00F0E28106D8B4F54D7F00F03E
:10754000D08140F23536E3E740F24236B44200F0F3
:10755000EA8100F2F48140F24136B4427FF44FAF49
:1075600000240AB106791655013424269C4206717E
:10757000C0F0DA8140F2423303E140F25636B442C1
:1075800000F053826AD8B4F5537F00F01C8232D8E1
:1075900040F24936B44200F0FD8115D840F245363C
:1075A000B44200F0E481B4F5527F7FF428AF0024A8
:1075B0000AB106791655013424269C420671C0F0A2
:1075C000EA8140F24933DCE040F24A36B44200F04E
:1075D000ED8140F24B36B4427FF411AF00240AB182
:1075E0000679165501348E7D06719C42C0F0EC81FF
:1075F0004FF45373C5E040F25136B44200F0FC81C1
:1076000015D840F24F36B44200F0E981B4F5547F0A
:107610007FF4F5AE00240AB106791655013402262E
:107620009C420671C0F0E98140F25133A9E040F27A
:107630005236B44200F0EC8140F25536B4427FF449
:10764000DEAE00240AB106791655013424269C4288
:107650000671C0F0EB8140F2563392E040F2723690
:10766000B44200F0278246D840F25936B44200F0C6
:10767000F5811BD840F25736B44200F0E281B4F5F0
:10768000567F7FF4BCAE00240AB10679165501344A
:107690008E7D06719C42C0F0E28140F2593370E069
:1076A00056B1012055B1012058B1012040F26D368C
:1076B000B44200F0F28140F26E36B4427FF49FAEE5
:1076C00000240AB106791655AF4EB04F36683F78A0
:1076D00096F801C0BC4504F1010440F2318296F8ED
:1076E00002C03E449C4216F80C600671C0F0E38173
:1076F00040F2723345E040F28336B44200F0FA8142
:10770000B4F5617F14D240F27736B44203D0B4F5B9
:107710005F7F7FF474AE00240AB1067916550134F8
:107720004026A342067100F2E68140F2833328E04E
:1077300040F28936B44200F0F48140F28E36B44211
:1077400000F0EF81B4F5617F7FF459AE00240AB1F7
:10775000067916558C4E0F7D36683678B74204F19F
:10776000010440F0D4810E6A9C4236780671C0F064
:10777000D98140F2893304E00824047123B940F22E
:10778000123303600120F0BD0AB1047914700B2498
:10779000012B04710ED840F21333F2E700240AB132
:1077A0000679165501340E7D06719C4205D34FF4BF
:1077B0004573E6E70124F2E700240AB1067916557D
:1077C000013402269C420671FFF424AE40F21533C8
:1077D000D7E700240AB106791655013402269C42E7
:1077E000067103D340F21733CBE700240AB10679C0
:1077F000165501344E7E06719C42FFF426AE4FF4BE
:107800004673BEE700240AB106791655604E00277C
:10781000013437705E4E37782E78B74202D340F28B
:107820009933AEE70926A342067103D84FF4487393
:10783000A7E700240AB106791655013404269C42B4
:107840000671FFF417AE40F221339AE700240AB123
:1078500006791655013400269C42067103D340F286
:1078600027338EE700240AB106791655464E36684E
:107870000134767806719C42FFF42FAE4FF44A73C0
:107880007FE700240AB106791655013402269C428E
:10789000067103D340F22D3373E700240AB1067951
:1078A000165501344E7E06719C42FFF435AE40F20F
:1078B0002E3366E78F7DB7427FF432AE0A269C42B4
:1078C000067103D340F233335BE700240AB1067933
:1078D0001655013400269C42067103D34FF44D73B4
:1078E0004FE700240AB106791655013400269C4260
:1078F0000671FFF411AE40F2353342E700240AB1BD
:1079000006791655204E0F7D36683678B74204F159
:10791000010440F0A88005269C420671FFF421AEC8
:1079200040F241332DE700240AB10679165501349F
:1079300000269C42067103D340F2433321E7002422
:107940000AB106791655013410269C42067103D3FC
:107950004FF4517315E700240AB106791655013426
:1079600001269C42067103D340F2453309E7002407
:107970000AB106791655013405269C420671FFF4BA
:1079800017AE4FF45273FCE658B1012057B10120F5
:1079900055B1012000240AB106791655013401269B
:1079A0009C42067103D340F24A33EAE600240AB14E
:1079B00006791655013403269C420671FFF40FAE7A
:1079C00040F24B33DDE600240AB106791655013446
:1079D00004269C42067103D340F24F33D1E60024C3
:1079E0000AB106791655013424269C420671FFF42B
:1079F00012AE4FF45473C4E600240AB1067916554A
:107A0000013402269C42067103D340F25233B8E699
:107A100000240AB106791655013405269C420671E8
:107A2000FFF410AE40F25533ABE600240AB10679FC
:107A30001655013406269C42067103D340F2573393
:107A40009FE600240AB10679165501340E7D0671B1
:107A50009C42FFF419AE4FF4567392E600240AB12B
:107A6000067916550134374E36687778364E3770BA
:107A7000364E00273770354E3778334E3678B7425A
:107A800004D3334F3E7801363E70C3E60726A34247
:107A9000067103D840F26D3373E600240AB106790B
:107AA0001655013405269C420671FFF40AAE40F2D9
:107AB0006E3366E600240AB106791655214E0F7D15
:107AC00036683678B74204F1010407D103269C4298
:107AD0000671FFF421AE40F2773352E68F7DB74254
:107AE0007FF41EAE02269C420671FFF415AE4FF4E1
:107AF0005F7346E600240AB1067916550134002664
:107B00009C420671FFF423AE4FF4617339E68F7D1A
:107B1000B7420BD100269C42067103D340F28E334C
:107B20002FE600240AB1067916550134074F3E7836
:107B300001363E709FE70023CCF800301B78FFDE53
:107B40000023FBE758B1012054B1012057B10120B7
:107B500055B101204360CA699A420ED38A69026016
:107B60008A69C8691A448A610A6FC01A1A44C861CE
:107B700000300A6718BF0120704701F12802026037
:107B80008B670020704710B5044658B90868037B1E
:107B9000202B09D100F10E01072218300FF069FAED
:107BA000204610BD0320FCE70620FAE7037A012BEC
:107BB00008D9427B012A00F10C0306D9827B1344C9
:107BC0005878704700235B78FFDE00231B78FBE7C3
:107BD0002DE9F0430B7889B005460E460E2B17D8D9
:107BE000DFE803F00A080A0A160CA4161608160A9B
:107BF0000A0A0A00FFF7CEFB002427E04A78D109E1
:107C00004FEA521330D013F0030303D0012B21D0DD
:107C100006241BE002F01F02012AF9D1B478062CD9
:107C2000F6D105A8039300F0BFFC03ABF2783179DD
:107C30000093074603462846FEF7E6FF052805D0D1
:107C4000039A3946701C00F045FA0446204609B0F4
:107C5000BDE8F083B378212BDAD1B6F80720072AE4
:107C6000D6D101681831EDE7012BD1D1B37807687F
:107C7000202B36D0222BCBD1B6F80730002BC7D122
:107C800097F82030B6F803403C8403F0010304F079
:107C90000104A342B0D0A4B2002C0CBF03210221E6
:107CA000FFF774FB002CA7D12B7A012B40F2D9806F
:107CB0006B7B05F10C02002B00F0D580AB7BD05C18
:107CC0000DF020F82846FFF771FF0DF01BF807F1C3
:107CD00034037C62FC62C7E91E44C7E920447B6729
:107CE000B4E7B6F80720072A92D13B73B6F80730FD
:107CF00008A8DBB200247B7300F8154D0E37CDE9E0
:107D00000573079400F04EFE204605A9FFF740F9E1
:107D1000044630B9564B03A9CDE9033500F0C8F944
:107D200004469DF80B0000F061FE8FE7037A002BFC
:107D300000F09B80837A00F10901002B00F0938012
:107D4000C27AB3788A5C9A423FF456AF1B06F47845
:107D50000AD524B1032C0CBF0024032476E70121AB
:107D60002846FFF713FB71E7012C3FF445AF04D31E
:107D7000032C3FF441AF032468E70668FFF716FFC2
:107D80003C4B059306F10C030693B76A8046B7B9DE
:107D9000F36FF46AB767C6E91F736CB106F12C0183
:107DA00003C906F1240383E80300F76205A94046EE
:107DB000FFF702F9044600E074620021D0E7D6F82C
:107DC0008490706A4F4528BF4F4606F134043A4606
:107DD00021460FF04EF9F36F3B44C6F88030A9EB13
:107DE0000703B367F36A00223C44F2677467002B11
:107DF00035D006F12C0999E8030006F1240787E83D
:107E000003001446F262B36F706A1BB9746A002CE7
:107E1000CCD1D2E7B26A716F9A4216D80FF029F925
:107E2000B36AB26FC6F88030D21AB267726F1A4462
:107E3000726700212846FFF7A9FAF36A7BB199E837
:107E4000030087E80300F462DDE71A460FF011F93A
:107E5000B26FB36AF2679B1AB362736A13447362B8
:107E6000D4E76378FFDE1B78FCE75B78FAE700BFB6
:107E7000877B0200557B02001FB503681B8CDC0763
:107E800014D5037A012B13D9437B00F10C0493B171
:107E9000837BE05C9306CDE901120CBF0123002334
:107EA00001A90393FFF774F804B010BD0820FBE7A5
:107EB00000235B78FFDE1B78FCE70000F7B5046861
:107EC000238CDB070F4616463BD5656A002D32D161
:107ED000A16F91420ED3616F38460FF0CAF8A36FBD
:107EE000C4F880609B1BA367636F334463672846B5
:107EF00003B0F0BDC4E90972FFF758FE134B0093BD
:107F000004F10C030646019369B10A463846616FD5
:107F10000FF0AFF8A36FA26AD21AA262626AC4E934
:107F20001E531A44626269463046FFF745F800283E
:107F300008BF9220DCE7E36A2BB9C4E90B12922058
:107F4000D6E70820D4E71120D2E700BF557B020016
:107F5000002070472DE9F04F87B04B6802928146B0
:107F60000C465BB90B681B681B683BB98D682DB963
:107F7000C0E90055284607B0BDE8F08F0CF060FD61
:107F8000E768029B9F4228BF1F464FF0000804F19C
:107F9000100383460197464601250393019B002B5E
:107FA0002DD0A368019A616893429A4628BF9246F1
:107FB00041B352460BEB06000FF05BF80023636001
:107FC000A268E3680199A2EB0A02A3EB0A03A1EB02
:107FD0000A01A260E360019156440ABBB8F1000FA8
:107FE00038D02268126812682260002B30D02368D3
:107FF000D3B963601EB1029BB34288BF0025C9E9B3
:1080000000B6B7E7002BDBD0216803984B680BEB79
:108010000602D3F804805346C0474FF00108CFE76B
:10802000002B08BF0025B9E70DF1180A00234AF814
:10803000083D21684B685B6800221F4650460123BB
:10804000B84708B92061A9E7A3680133A360F0E746
:108050001D46A3E7002BCAD145469FE7084B1A7877
:1080600082420CD0052818BF064A187018BF137832
:1080700005481CBF23F002031370FFF72DB87047AB
:1080800068B1012084B10120007A030008B5002006
:10809000FEF71CFF8020BDE80840FEF717BF08B5BB
:1080A0000020FEF723FF8020BDE80840FEF71EBF3A
:1080B00038B505460C460CF069FDA84203BFD4E96B
:1080C0000001034BC3E90001102008BF002038BDA8
:1080D00088B101207FB5C38893421D4628BF15464D
:1080E00093420E46144624D980200CF0E5FBB4FBE5
:1080F000F0F303FB1040B0FA80F04009039004A8AD
:10810000002300F80D3DCDE9016500F04BFC01A90D
:108110008020FEF73DFF044620B907498020FFF785
:10812000C7FF04469DF8030000F060FC204604B041
:1081300070BD0020E2E700BF347A03002DE9F04F64
:108140000C78062C87B00E4600F0008220D8022C56
:108150003DD003D8012C32D00624F1E1032C32D0DB
:10816000052CF9D10DF10D00B24D8DF80C400CF03D
:10817000A1FC00232B609DF80D3003F01F02032AA1
:1081800000F28881DFE812F02D0022017D016500F8
:108190000D2C00F0C98107D80B2C18D00C2CDBD18A
:1081A0000020FFF75BFF12E00E2C00F0CD81852C44
:1081B000D2D1A14B1B78032BCED1042000E00320A9
:1081C000FFF74CFFC8E79D4800F001FD08B9002407
:1081D000B6E19B4B01221A60BFF36F8FBFF34F8F45
:1081E000F5E7C3F34116A6BBDB099DF80E1000F0BE
:1081F000A680062916D0082900F0948049BB914C2E
:10820000022220460EF040FF237843F00102227044
:108210008D4A1278910744BF43F003032370022272
:1082200088490EE09DF81030022B16D0032B69D040
:10823000012B0ED1BDF81330002B00F07281834961
:1082400012220DF10D00FFF745FF0446062C40F009
:10825000298103A8FEF78AFE11E1BDF81370002FF3
:1082600000F05F81092F28BF0927FEF741FE4FF07C
:1082700009080446B14674BB724C75493A4620461B
:108280000EF0F7FE2671A4F80280FEF717FE18B173
:10829000E37943F02003E371FEF72AFE6D4BC3E957
:1082A00000049F60BDF81320DA6001A800238DF858
:1082B000043000F077FB68498020FEF77DFE04461D
:1082C00020B966498020FFF7F3FE04469DF80400BC
:1082D00000F08CFBBAE7CDF804904FF0000A636819
:1082E0000022D3F804B02146012301A8D84730B9B1
:1082F000237A1E442368D044F6B21C68BBE70AF117
:10830000010AECE7BDF81330002B00F00A81BDF83C
:1083100011109DF80F0000F031FB0146002898D0A5
:1083200002788EE7444A1278052A03D1454A137031
:10833000012275E7042A8CD1424B1E70F8E703290D
:1083400010D009292CD0012983D1BDF80F30012B81
:108350007FF47FAFFEF7B2FD60B13B4A137823F0A4
:1083600002030FE0BDF80F30012B7FF472AFFEF770
:10837000A5FD18B90F240CF006FCE1E0324A137891
:1083800043F0020313702B68002B00F0CA800CF03E
:10839000FDFB044600287FF41AAF0CF0B1FBCFE0E0
:1083A000254B1B78043B012B01D90824E3E79DF8FA
:1083B0000F302BB9FEF77CFE0420FFF74FFEE2E7FB
:1083C000012B55D1FEF760FE0520F6E701A99DF8C7
:1083D0001100FEF793FD074608B91024CBE703AA66
:1083E0009DF80410FEF7A2FD062804465AD19DF818
:1083F0000D2012F0600FBED10F4B9DF804101878BD
:108400009DF80E30D6092BD073B10A2BB3D10528B5
:10841000CBD13846FEF732FE0A49324608700DF1DC
:108420000D00FFF757FE2AE00528BED105490B8055
:108430000222F4E788B1012068B1012090B1012047
:108440005C70024094B1012084B10120207A0300C5
:10845000017A03006CB101203C7A0300347A0300F6
:108460000B2B88D10528A0D1BDF80F30FF2B01D9E7
:10847000072480E79DF80F203846FEF7B1FD04463B
:1084800010E09DF81100020706D19DF80D3013F0A1
:10849000600F0BD006246EE703A9FEF74AFD0628FD
:1084A0000446F2D0002C3FF46EAF64E79DF80E2036
:1084B000384B9DF811401B78012A1ED012D3032A95
:1084C000E8D104F00F02072AE4D8BDF80F10002904
:1084D000E0D1052B02D0002A7FF467AF20460CF0D4
:1084E000B3FA50E7052B02D023077FF45EAF204696
:1084F0000CF0B6FA284908809AE704F00F02072A20
:10850000C8D8BDF80F100029C4D1052B02D0002A0D
:108510007FF44BAF20460CF0BDFA20460CF020FE55
:1085200031E70CF02DFB52E64FF08043D3F838448E
:1085300014F0010401D0022033E60120FFF78EFD84
:10854000204607B0BDE8F08F01202AE6C87803284E
:10855000F6D0124D2B68D3B100222A606968984783
:10856000044600287FF407AF2B6823B1B378002BB3
:108570007FF42DAE11E70A4B1B68082B04D1094B81
:108580001B68002B3FF423AE0CF0FAFAD8E70E2458
:10859000F1E600BF68B1012094B1012088B101204B
:1085A000300100103401001008B14023036001487D
:1085B000704700BF94B1012070B50D7A0DB101F183
:1085C0000905046840F25F16B44200F0E380B4F598
:1085D000B07F40D2B4F5AD7F00F0AB8020D840F240
:1085E0005716B44200F08B80B4F5AC7F05D2002C56
:1085F0007FD000230360184680E000F08B8040F2BB
:108600005915AC42F5D100240AB10579155501344C
:1086100000259C420571C0F08D804FF4AD7377E06A
:10862000B4F5AE7F00F09D80C0F08F8040F25D1504
:10863000AC4200F0A280B4F5AF7FDAD100240AB1D9
:1086400005791555013400259C420571C0F0A380C1
:1086500040F25F135CE040F26715AC4200F0C0806E
:10866000B4F5B47F2DD240F26315AC4200F09F8088
:10867000B4F5B27F0FD2B4F5B17FBAD100240AB1FC
:1086800005791555013421259C420571C0F0908073
:1086900040F263133CE040F26515AC4200F0938079
:1086A000B4F5B37FA5D100240AB1057915550D8A1B
:1086B00001342D0A9C420571C0F0938040F267138B
:1086C00026E040F26915AC4200F0A380B4F5B47F17
:1086D00040F29280B4F5B57F00F0A78040F26B13B2
:1086E0009C4286D100240AB10379135540F26D13E0
:1086F0000EE00924047113B90660012070BD0AB1AF
:10870000047914700424012B047110D84FF4AC7355
:108710000360F2E700240AB10679165501342D787A
:1087200005719C42FFF470AF40F25913F0E7012449
:10873000F1E700240AB105791555013400259C4262
:10874000057103D340F25B13E2E700240AB1057917
:1087500015550134FF259C42057103D34FF4AE73C8
:10876000D6E700240AB105791555013401259C424C
:10877000057103D340F25D13CAE700240AB10579FD
:108780001555013401259C420571FFF458AF4FF493
:10879000AF73BDE700240AB10579155501340925E9
:1087A0009C420571FFF46BAF4FF4B173B0E7002446
:1087B0000AB105791555013409259C42057103D389
:1087C00040F26513A4E700240AB105791555013478
:1087D0000D8A05719C42FFF467AF4FF4B37397E7BE
:1087E00000240AB10579155501344D8A05719C4262
:1087F00003D34FF4B4738BE700240AB10579155500
:108800004D8A01342D0A9C42057103D340F269134D
:108810007EE700240AB10579155501348D8A05716A
:108820009C4203D34FF4B57372E700240AB1057973
:108830001555898A0134090A9C420171FFF453AF2E
:1088400040F26B1364E7F0B50A780E2A85B006464D
:108850000D4614D80123934047F64F02134202D02D
:10886000002005B0F0BD9B0609D54A78D1094FEA32
:10887000521330D013F0030303D0012B1DD0062078
:10888000EFE702F01F02012AF9D1AC78062CF6D1ED
:1088900003A80293FFF788FE02AB00930746034646
:1088A000EA7829793046FEF7AFF90528E7D0029A31
:1088B0003946681CFFF70EFCD3E7AB78072B04D0D2
:1088C000082BDCD1C2688169F3E7B5F80720182AC4
:1088D000D5D1C169EDE7012BD1D1AC78002CCED137
:1088E00002681373036A002BBAD021469847B7E792
:1088F00070B54FF0805286B0D2F8A830D2F8A420DC
:1089000000926FEA83436FEA934302AD9BB2094A38
:10891000094E0D2128460EF0BFFB002428460EF01C
:10892000EFFB844201D306B070BD2B5DA35501342B
:10893000F4E700BF587A0300F0E8012010B50E4BB1
:1089400053F8204023780BB9A01C10BD0020FFF77E
:108950002BFE2246E4B2131B12F8011BDBB231B925
:1089600001335B00DBB243F440730380EDE7131B7C
:10897000DBB220F81310EEE7B07A030008B9FFF776
:10898000DDBF052807D8054A105C20B1044B53F819
:108990002030002BF3D10020704700BFC87A0300BD
:1089A000B07A030070B5EFF3108672B60C4A946883
:1089B00001239CB993600B4B0B4DD3F880102940D9
:1089C0001160C3F88050D3F8841051604FF0FF322B
:1089D000C3F88420047006B962B670BD0370FAE76C
:1089E00000E9012000E100E0FC06FFBD10B5084BE6
:1089F0009A685AB150B9EFF3108172B6054A1C68F3
:108A000014605C685460986001B962B610BD00BF24
:108A100000E9012000E100E02AB113880144884206
:108A200004D1184670474FF6FF73F7E75BBA10F8AA
:108A3000012B9BB25A40C2F30313534083EA033322
:108A40001BB25A0102F4FF5253409BB2E7E710B544
:108A500061B1B2FBF3F403FB1424A4B244B9C0E93E
:108A6000001484608281C381204610BD0E20FCE783
:108A70000920FAE737B550E8013F9DB2C489254483
:108A80008489A54228BF2D1B0489A54202BFBFF3DC
:108A90002F8F002207E0C5EA030540E80154002CAF
:108AA000E9D14FF001028DF803200193019B9DF85D
:108AB00003200B6002F0FF0322B10B88006818440A
:108AC00003B030BD1846FBE70A884B889A4209D1AB
:108AD00050E8012FC2EA024240E80123002BF7D1FF
:108AE000012070470020704737B550E8023F1FFA59
:108AF000A3F5C488A54202BFBFF32F8F00220DE06B
:108B0000C48925448489A54228BF2D1BC3EA054595
:108B100040E80254002CE8D14FF001028DF8032008
:108B20000193019B9DF803200B6002F0FF0322B12B
:108B30004B880068184403B030BD1846FBE70A882C
:108B40004B889A4209D150E8022FC2EA224240E8FB
:108B50000223002BF7D1012070470020704750E816
:108B6000002F0B4640E8003C9CF0000FF7D1104668
:108B7000704750E8002F02EA010340E8003C9CF0F7
:108B8000000FF6D11046704750E8003F03EA01029B
:108B900040E8002C9CF0000FF6D11046704750E8DA
:108BA000003F03EB010240E8002C9CF0000FF6D1DF
:108BB0001046704750E8003F8B422CBF5A1A1A46A5
:108BC00040E8002C9CF0000FF4D1104670470021C3
:108BD000FFF7CFBF10B590B1D0E9012301689B1A10
:108BE000DBB20A60013BDBB2FF2B026802D100203E
:108BF000107110BD11684C1C14600B70F2E70E2050
:108C0000F7E737B5054602A8002400F8014DFFF745
:108C1000C9FE2A68696813688B4210D9591E116011
:108C200013F8014C2A8AEB6802FB04342A68AB680B
:108C300011685B1A1179DBB2994238BF13719DF844
:108C40000700FFF7D3FE204603B030BD37B5054619
:108C500002A8002300F8013D0C46FFF7A3FE2A6896
:108C60001368591C1160E968641A298AB4FBF1F48D
:108C70001C709DF80700FFF7B9FE03B030BD026815
:108C800013685268934291BFD01A806801308018EF
:108C900088BFC01A7047036881681A685B688B4296
:108CA00034BF01330023D31A584258417047F7B5F7
:108CB000044602A8002300F8013D0D46FFF772FEAE
:108CC0002046FFF7E8FF10B1237C002B3DD121683F
:108CD000A6684B684A68B24234BF013200224A603B
:108CE00038B12168A0680A68824234BF013200228C
:108CF0000A60E2686068511E072920D8DFE801F0A9
:108D000004101F141F1F1F182A78C2542046FFF793
:108D1000B6FF23689A68824200D29860002415E06A
:108D20002A8820F81320F1E72A6840F82320EDE78D
:108D3000D5E9006700EBC300C0E90067E6E7294614
:108D400003FB02000EF095F9E0E704249DF807000C
:108D5000FFF74CFE204603B0F0BD37B5054602A82C
:108D6000002400F8014DFFF71DFE0C222146286863
:108D70000EF08AF99DF80700FFF738FE03B030BD0A
:108D800013B5044602A8002300F8013DFFF70AFED0
:108D90002046FFF774FF04469DF80700FFF726FE04
:108DA000204602B010BD036818685B68C31A5842B9
:108DB0005841704773B5054602A8002300F8013DED
:108DC0000C461646FFF7EEFD2846FFF7ECFF00289D
:108DD00032D129680B682EB90A68A868824238BF68
:108DE000561C0E60EA686968501E07281ED8DFE826
:108DF00000F0040E1D121D1D1D16CB5C23700024F7
:108E00009DF80700FFF7F2FD204602B070BD31F873
:108E100013302380F3E751F823302360EFE701EBB1
:108E2000C301D1E90023C4E90023E8E703FB0211F1
:108E300020460EF01EF9E2E70524E1E701600B6829
:108E400043604A68934204BF00234360704743680D
:108E500043B1026891680B4443605268934204BF77
:108E60000023436070470000054B1B68082B01BFBF
:108E7000044B1868B0FA80F0400918BF0020704712
:108E8000300100103401001008B54FF0804300227B
:108E9000C3F80C21C3F81021C3F838254FF08052D5
:108EA00003F54043D2F80414C3F82015D2F808148F
:108EB000C3F82415D2F80C14C3F82815D2F81014EE
:108EC000C3F82C15D2F81414C3F83015D2F81814BE
:108ED000C3F83415D2F81C14C3F84015D2F8201486
:108EE000C3F84415D2F82414C3F84815D2F828144E
:108EF000C3F84C15D2F82C14C3F85015D2F830141E
:108F0000C3F85415D2F83414C3F86015D2F83814E5
:108F1000C3F86415D2F83C14C3F86815D2F84014AD
:108F2000C3F86C15D2F84424C3F87025FFF79CFFF2
:108F300010B1384B384A1A60FFF796FF18B1374B1B
:108F4000FB22C3F81825FFF78FFF48B13449354B92
:108F50000A681B6822F00F0203F00F0313430B6033
:108F6000FFF782FF18B1304B4FF400721A604FF0D8
:108F70008043D3F80024D20744BF6FF00102C3F846
:108F800000242A4AD2F8883043F47003C2F88830AB
:108F9000BFF34F8FBFF36F8F4FF01023D3F8002232
:108FA000002A03DBD3F80432002B2FDA204B0122F6
:108FB000C3F80425D3F80024002AFBD04FF0102278
:108FC0001221C2F80012D3F80024002AFBD04FF07F
:108FD00010231222C3F80422154B1A46D3F80014AA
:108FE0000029FBD00021C3F80415D2F80034002B6F
:108FF000FBD0BFF34F8F0D490E4BCA6802F4E062FD
:109000001343CB60BFF34F8F00BFFDE70A4B0B4A02
:109010001A6008BD8C5600404881030000F00040F3
:10902000E40E0040580200104096024000ED00E0BF
:1090300000E001400400FA0560AD01200090D0037B
:1090400099B90A4B1B681F2B88BF03F01F0303F558
:10905000E0718CBF064A4FF0A042032042F8210085
:10906000012101FA03F3C2F80C35704700B2012068
:10907000000300502DE9F843254D2A78002A45D1F8
:10908000244B25491860254B25481A725A729A724A
:10909000DA721A735A739A73DA73091A4FF080529C
:1090A000186059601169596152691E481E4F4A4340
:1090B0001A610EF025F86126441C4FF02D084FF080
:1090C000300919480EF01CF8844207D31748FDF701
:1090D000A1FE08B901232B70BDE8F883E35D23F0FE
:1090E0002002413A192A0ED92B3BDBB20E2B05D8B0
:1090F00047F6ED7222FA03F3DA0704D42D2E14BFDB
:1091000043464B463B553E5D0134DAE70020E3E73A
:10911000D4B1012000B2012018810300E8B1012080
:1091200000600200F47A030064AD0120D07A0300ED
:1091300040B149B10378602B06D1012914BF092041
:10914000002070470E2070470720704713460A46DC
:109150000146602006F0F9BC7FB50C461D46064668
:1091600010B90E2004B070BD09B90720FAE70378E2
:10917000682BFAD101230393002AF2D0002DF0D0FE
:109180002B68002BEDD0134603AA06F00EFD002835
:10919000E8D100902B4603AA2146304607F040F85C
:1091A0000028DFD1039B9C4218BF0920DAE70000AA
:1091B0002DE9FF41DDF828800190164600930F4607
:1091C00009B90E2019E0002AFBD00023156803938B
:1091D00068238DF80B302A4603AB0DF10B0006F027
:1091E00029FD50B903AB2A46394601A806F0C3FC55
:1091F00018B9019B23B1039B336004B0BDE8F08133
:10920000B8F1000FDDD003AB2A463946684606F0B8
:10921000B2FC0028F1D1009B212B1AD00ED8022BD2
:1092200013D0202B13D0012BCBD10D4C03AB2A46EE
:1092300039464046A0470028DDD0DEE7232B0CD07E
:1092400009D3242BBDD1074CF0E7074CEEE7074CC0
:10925000ECE7074CEAE7074CE8E7074CE6E700BF16
:10926000E3FF0200E5C90200FD00030023C702007E
:109270007DC70200FDC7020061CB02002DE9FF415E
:109280000E4690461D46074608B90E2401E021B956
:109290000724204604B0BDE8F0810378672BF7D19E
:1092A00001230393002AF0D0002DEED02B68002B71
:1092B000EBD0134603AA06F078FC04460028E8D158
:1092C00000902B4603AA3146384606F0A9FF044613
:1092D0000028DED12B683BB3D8F80020212A1BD010
:1092E0000DD8022A14D0202A14D0012ACDD1114D34
:1092F00003AA31463846A847B0B10446C9E7232A35
:1093000010D00BD3242A0BD0252ABED10A4DEFE76B
:109310000A4DEDE70A4DEBE70A4DE9E70A4DE7E7AD
:109320000A4DE5E70A4DE3E7039B9E4218BF092477
:10933000AFE700BF3B000300A9CB02001D01030003
:109340004FC70200BDC702001DC8020013CA0200B9
:1093500081CB020013460A460146672006F0F5BBA2
:109360007FB50C461D46064610B90E2004B070BDF0
:1093700009B90720FAE70378662BFAD10123039392
:10938000002AF2D0002DF0D02B68002BEDD0134630
:1093900003AA06F02EFC0028E8D1074B009303AA8D
:1093A0002B462146304606F03BFF0028DED1039BCA
:1093B000A34218BF0920D9E79300030013460A46C9
:1093C0000146662006F0C1BBF0B50D4685B00646E5
:1093D000F0B111B9072005B0F0BD0478632CF9D1C4
:1093E00004AC012744F8047D0092224606F026FDD5
:1093F0000028F0D100900A9B22462946304606F00C
:109400000FFF0028E7D1039BAB4218BF0920E2E71A
:109410000E20E0E7F0B587B0144603901F460E46D5
:1094200029B322B300231568059363238DF8133005
:109430002A4605AB0DF1130006F0FCFBA8B905ABFD
:109440002A46314603A806F096FB70B9039B13B178
:10945000059B236009E0074B00932A4605AB314684
:10946000384606F0C0FE0028F2D007B0F0BD0E204E
:10947000FBE700BF53FF0200F0B585B00C461F4666
:109480000A9E054610B90E2005B0F0BD09B90720A7
:10949000FAE70378642BFAD101230393002AF2D070
:1094A000002FF0D0002EEED01368002BEBD03B68DD
:1094B000002BE8D03368002BE5D0104B0093134607
:1094C00003AA06F0ADFE0028DED10023009303AA14
:1094D0003B462146284606F0A3FE0028D4D1009042
:1094E000334603AA2146284606F09AFE0028CBD12F
:1094F000039B9C4218BF0920C6E700BF81FF020002
:109500002DE9F04387B017460390DDF838908DF8C9
:109510000B308846002939D0002A37D0002315683F
:10952000059305AE64238DF813302A4633460DF1BA
:10953000130006F07FFB044658B933462A464146DD
:1095400003A806F018FB044618B9039B2BB1059B32
:109550003B60204607B0BDE8F08333462A464146CB
:109560000DF10B0006F066FB04460028F1D1B9F1BD
:10957000000FECD09DF80B1000962B464246484653
:1095800006F08AFC0028E2D00446E2E70E24E0E779
:109590007FB50C461D46064610B90E2004B070BDBE
:1095A00009B90720FAE70378622BFAD10123039364
:1095B000002AF2D0002DF0D01368002BEDD02B68DC
:1095C000002BEAD00A4B0093134603AA06F028FEAC
:1095D0000028E3D100902B4603AA2146304606F02E
:1095E0001FFE0028DAD1039B9C4218BF0920D5E753
:1095F000CBFF0200F0B587B0144603901F460E461D
:1096000029B322B300231568059362238DF8133024
:109610002A4605AB0DF1130006F00CFBA8B905AB0B
:109620002A46314603A806F0A6FA70B9039B13B187
:10963000059B236009E0074B00932A4605AB3146A2
:10964000384606F0D0FD0028F2D007B0F0BD0E205D
:10965000FBE700BF35FC02001FB50C46134610B9EE
:109660000E2004B010BD09B90720FAE70278652A78
:10967000FAD101220392002BF2D01A68002AEFD00F
:109680000022009203AA06F0CBFD0028E9D1039B3B
:109690009C4218BF0920E4E7F0B585B0144601905C
:1096A0001E460F4611B90E2005B0F0BD002AFAD0B3
:1096B00000231568039365238DF80B302A4603AB0E
:1096C0000DF10B0006F0B6FA0028EDD103AB2A46E7
:1096D000394601A806F04FFA0028E5D1019B13B1E5
:1096E000039B2360E0E7002EDDD003AB2A4639461A
:1096F000304606F0E5FC0028F2D0D5E713B5134656
:1097000010B90E2002B010BD09B90720FAE702789F
:10971000672AFAD101220192002BF2D001AA06F0A9
:1097200044FAEFE72DE9F043884685B014461D461C
:10973000814620B90E26304605B0BDE8F08309B950
:109740000726F8E70378692BFAD104AF012347F81D
:10975000043D13463A4606F028FA06460028EAD1A8
:1097600000902B463A464146484606F059FD0646CB
:109770000028E0D12B6823B9039B434518BF092675
:10978000D9E72268232A34D00ED8202A1DD004D845
:10979000012A34D00024254619E0212A26D0222A85
:1097A000F8D19C1C1F4D12E0412A2BD006D8242A48
:1097B00022D0402AEED11C461B4D08E0A02A24D01E
:1097C000A12AE7D11C46194D01E0194D9C1C203AF5
:1097D000032A1DD9002DADD0002CABD023463A462C
:1097E00041464846A8470028C6D018E09C1C114DA9
:1097F000EDE79C1C104DEAE79C1C104DE7E71C466A
:109800000F4DE4E71C460F4DE1E71C460E4DDEE729
:109810003A464146484606F01AFA0028DAD006468B
:1098200089E700BFB3F1020011CC0200EFF10200A2
:10983000E3CB020011DF020095CE020069FA0200BC
:109840004501030041CA0200C7F1020013460A465F
:109850000146692006F079B9F7B50E461546074668
:10986000E8B1E2B102AC002344F8043D531C2246A7
:1098700006F0EDF988B92B4622463146384606F007
:10988000E6F950B96B1D22463146384606F0DFF93D
:1098900018B9019B9E4218BF092003B0F0BD0E20ED
:1098A000FBE71FB51446019069B162B104AB002219
:1098B00043F8042D01A8226806F05DF908B9039B5E
:1098C000236004B010BD0E20FBE710B4002A00F0A6
:1098D0006281002B00F05F81002800F05C81048829
:1098E000013C762C00F25181DFE814F07B00770018
:1098F0004F014F014F014F014F014F014F014F01E8
:109900004F014F014F014F014F01AB00A7007F00F6
:1099100087008B009300B3009700B7008F009B0077
:10992000A3009F004701AF0083004B01BF00BB00B5
:10993000CB00CF00C300C7004F014F014F014F01C3
:109940004F014F014F014F014F01DF00F300D300E2
:10995000D700FB00DB00E700F700EF00E300FF00AB
:10996000EB0003014F014F014F014F014F014F0128
:109970004F014F014F014F014F014F014F014F0167
:109980004F014F014F014F014F01130117011B01FF
:1099900007010F011F010B0123014F014F014F016F
:1099A0004F014F014F014F014F014F014F014F0137
:1099B0004F014F014F014F014F014F014F014F0127
:1099C0004F014F014F014F014F0127012B012F0183
:1099D000330137013B013F0143015DF8044B00F0C7
:1099E000DCB85DF8044B00F01EB95DF8044B01F0E3
:1099F0000FBC5DF8044B01F03FBC5DF8044B01F077
:109A000081BE5DF8044B01F049BE5DF8044B01F0E6
:109A1000A3BB5DF8044B01F083BD5DF8044B01F07E
:109A20006DBB5DF8044B01F05BBC5DF8044B01F0CD
:109A3000B8BD5DF8044B01F0CDBE5DF8044B01F0FC
:109A4000B7BC5DF8044B01F07FBC5DF8044B01F03E
:109A50008DBE5DF8044B01F0F5BC5DF8044B01F0E0
:109A60001FBD5DF8044B01F001BF5DF8044B01F030
:109A70003BBF5DF8044B02F007B85DF8044B01F002
:109A8000CFBF5DF8044B01F063BF5DF8044B01F0FC
:109A900093BF5DF8044B03F079BC5DF8044B03F011
:109AA0002CBD5DF8044B03F0AEBC5DF8044B03F035
:109AB0009EBD5DF8044B03F05DBD5DF8044B03F003
:109AC000D3BD5DF8044B03F049BE5DF8044B03F0D1
:109AD00082BE5DF8044B03F004BE5DF8044B03F056
:109AE000CFBC5DF8044B03F014BC5DF8044B03F0ED
:109AF000AFBE5DF8044B03F0E8BE5DF8044B04F024
:109B00005FBF5DF8044B04F0DBBF5DF8044B04F06D
:109B100084BF5DF8044B05F001B85DF8044B04F018
:109B2000F5BE5DF8044B04F09EBF5DF8044B05F0F4
:109B30004DB85DF8044B05F076B85DF8044B05F0C0
:109B40004DBD5DF8044B05F086BD5DF8044B05F096
:109B5000BFBD5DF8044B05F0F0BD5DF8044B05F0AA
:109B600019BE5DF8044B05F068BE5DF8044B05F0C6
:109B700099BE5DF8044B05F0FEBE5DF8044B01F0A4
:109B800081BA5DF8044B01F043BD00221A60062043
:109B90005DF8044B70470E20FAE7F0B5154685B026
:109BA0001F46044600283AD0002A38D0002B36D071
:109BB0000388022B35D13E68ADF80A3000220392AB
:109BC00003AB324629460DF10A0006F001F820BB2E
:109BD00003AB32462946201D05F0FAFFE8B903AB76
:109BE0003246294604F1080006F024F8A8B903AB70
:109BF0003246294604F1100005F0EAFF68B90090EA
:109C000003AB32462946E06806F0EDFA28B9A08891
:109C100006F080FC08B9039B3B6005B0F0BD0E2048
:109C2000FBE70720F9E7F7B515461E46044620B3C3
:109C30001AB313B30388012B21D13768ADF8023072
:109C40000022019201AB3A4629460DF1020005F0CF
:109C5000BFFF80B901AB3A462946201D05F0B8FF89
:109C600048B901AB3A46294604F1080005F0E2FF85
:109C700008B9019B336003B0F0BD0E20FBE707205D
:109C8000F9E7F7B50D461F460646E8B111B90720BA
:109C900003B0F0BD0378732BF9D102AC012344F873
:109CA000043D1346224605F0D2FF0028F0D13B4682
:109CB00022462946304605F0CAFF0028E8D1019B1C
:109CC000AB4218BF0920E3E70E20E1E713460A463E
:109CD0000146732005F039BF37B513460C4698B1DD
:109CE00011B9072003B030BD0278742AF9D102AA55
:109CF000012542F8045D05F0AAFF0028F2D1019B7E
:109D00009C4218BF0920EDE70E20EBE713460A46F8
:109D10000146742005F019BF1FB50C46134610B953
:109D20000E2004B010BD09B90720FAE70278792A9D
:109D3000FAD101220392002BF2D01A68002AEFD048
:109D40000022009203AA06F06BFA0028E9D1039BD7
:109D50009C4218BF0920E4E7F0B587B01446039091
:109D60001F460E4629B322B30023156805937923B5
:109D70008DF813302A4605AB0DF1130005F05AFF9C
:109D8000A8B905AB2A46314603A805F0F4FE70B920
:109D9000039B13B1059B236009E0074B00932A4600
:109DA00005AB3146384606F01EFA0028F2D007B05F
:109DB000F0BD0E20FBE700BFD1FB020013B5134638
:109DC0000C4610B90E2002B010BD09B90720FAE701
:109DD0000278782AFAD101220192002BF2D001AA4E
:109DE00005F007FF0028EED1019BA34218BF092010
:109DF000E9E713460A460146782005F0A6BE7FB57E
:109E00000C461E46054610B90E2004B070BD09B9B7
:109E10000720FAE70378802BFAD101230393002A65
:109E2000F2D0002EF0D0134603AA05F0E2FE00287F
:109E3000EBD1334603AA2146284605F008FF002847
:109E4000E3D13378012B04D004D3022BE0D11020CE
:109E500000E0062080B2CDE90000089B03AA21465D
:109E6000284605F0B5FF0028CFD1039B9C4218BFC0
:109E70000920CAE713460A460146802005F065BE60
:109E80007FB50C461D46064610B90E2004B070BDC5
:109E900009B90720FAE703787E2BFAD1012303934F
:109EA000002AF2D0002DF0D02B68002BEDD0134605
:109EB00003AA05F09EFE0028E8D1074B009303AAF1
:109EC0002B462146304606F0ABF90028DED1039B35
:109ED000A34218BF0920D9E785BE020013460A46EF
:109EE00001467E2005F031BE7FB50C461D46064674
:109EF00010B90E2004B070BD09B90720FAE7037845
:109F0000752BFAD101230393002AF2D0002DF0D053
:109F10002B68002BEDD0134603AA05F06AFE00283B
:109F2000E8D1074B009303AA2B462146304606F0A2
:109F300077F90028DED1039BA34218BF0920D9E797
:109F40009FBF020013460A460146752005F0FDBD7D
:109F50007FB50C461E46054610B90E2004B070BDF4
:109F600009B90720FAE70378872BFAD10123039375
:109F7000002AF2D0134603AA05F03BFE0028EDD1DB
:109F80000090334603AA2146284606F049F90028E6
:109F9000E4D1039BA34218BF0920DFE7F0B587B0E7
:109FA0000F4603901C46154632B32BB30023266898
:109FB000059387238DF81330324605AB29460DF102
:109FC000130005F037FEA8B905AB3246294603A8B1
:109FD00005F0D1FD70B9039B13B1059B236009E027
:109FE000064B0093324605AB2946384606F0FBF88F
:109FF0000028F2D007B0F0BD0E20FBE7E1BC020064
:10A00000F0B50C4685B01646054610B90E2005B0D1
:10A01000F0BD09B90720FAE707787D2FFAD10127AB
:10A020000397002BF2D00A4A009203AA06F0F8F830
:10A030000028ECD10090334603AA2146284606F0BA
:10A04000EFF80028E3D1039BA34218BF0920DEE705
:10A05000F3FB02002DE9F04786B08A460390914653
:10A06000DDF838801D46002B3ED0B8F1000F3BD004
:10A070000023D8F80060059305AF7D238DF81330D9
:10A0800032463B4629460DF1130005F0D3FD044648
:10A0900060B93B463246294603A805F06CFD0446EC
:10A0A00020B9039B33B1059BC8F80030204606B0A9
:10A0B000BDE8F0870D4B009332463B4629464846A3
:10A0C00006F091F804460028F0D1B9F1000FEAD06B
:10A0D000B9F80010009733462A46504605F0DCFEDA
:10A0E0000028E0D00446E1E70E24DFE7D1FB0200C0
:10A0F000F0B585B00C461E460A9F054610B90E20E5
:10A1000005B0F0BD09B90720FAE703787C2BFAD136
:10A1100001230393002AF2D0002EF0D0002FEED0BE
:10A120000A4B0093134603AA06F07AF80028E7D1F9
:10A130000097334603AA2146284605F096FE0028DC
:10A14000DED1039BA34218BF0920D9E757BE020006
:10A1500013460A4601467C2005F0F7BC73B50C4651
:10A160001E46054610B90E2002B070BD09B9072081
:10A17000FAE70378762BFAD101230193002AF2D073
:10A18000002EF0D0134601AA05F033FD0028EBD1D4
:10A19000334601AA2146284605F059FD0028E3D19F
:10A1A000019BA34218BF0920DEE713460A46014679
:10A1B000762005F0CABC0000F0B585B00C461F46FD
:10A1C0000A9E054610B90E2005B0F0BD09B907205A
:10A1D000FAE70378852BFAD101230393002AF2D002
:10A1E000002EF0D0002FEED03368002BEBD03B6870
:10A1F000002BE8D0134603AA05F0FBFC0028E3D1AE
:10A200000C4B009303AA3B462146284606F008F86B
:10A210000028D9D1084B009303AA3346214628468B
:10A2200005F0FEFF0028CFD1039B9C4218BF0920F8
:10A23000CAE700BFB7C102004FC1020013460A4679
:10A240000146852005F081BC73B50C461E460546C7
:10A2500010B90E2002B070BD09B90720FAE70378E3
:10A26000822BFAD101230193002AF2D0002EF0D0E4
:10A27000134601AA05F0BDFC0028EBD1334601AA24
:10A280002146284605F0E3FC0028E3D1019BA342C8
:10A2900018BF0920DEE713460A460146822005F072
:10A2A00054BC00007FB50C461E46054610B90E2072
:10A2B00004B070BD09B90720FAE70378812BFAD101
:10A2C00001230393002AF2D0002EF0D0134603AAF4
:10A2D00005F08FFC0028EBD1074B009303AA33460F
:10A2E0002146284605F09CFF0028E1D1039BA342AC
:10A2F00018BF0920DCE700BF37C8020013460A4632
:10A300000146812005F021BCF0B585B00C461F4602
:10A310000A9E054610B90E2005B0F0BD09B9072008
:10A32000FAE70378832BFAD101230393002AF2D0B2
:10A33000002EF0D0002FEED0134603AA05F059FCF2
:10A340000028E9D10B4B009303AA3B46214628463F
:10A3500005F066FF0028DFD10090334603AA2146AE
:10A36000284605F05DFF0028D6D1039BA34218BF05
:10A370000920D1E7E5C10200F0B587B00F46039090
:10A380001C46154632B32BB300232668059383235E
:10A390008DF81330324605AB29460DF1130005F058
:10A3A00049FCA8B905AB3246294603A805F0E3FBF2
:10A3B00070B9039B13B1059B236009E0064B009322
:10A3C000324605AB2946384605F00DFF0028F2D08D
:10A3D00007B0F0BD0E20FBE751C802002DE9FF4198
:10A3E0000A9E0C469846054618B90E2004B0BDE8F2
:10A3F000F08109B90720F9E70378842BFAD101230A
:10A400000393002AF1D0B8F1000FEED0002EECD06B
:10A41000134603AA05F0EDFB0028E7D10B4F009788
:10A42000434603AA2146284605F0FAFE0028DDD15E
:10A430000097334603AA2146284605F0F1FE00287E
:10A44000D4D1039BA34218BF0920CFE79DC80200C7
:10A4500013460A460146842005F077BB1FB50C461B
:10A46000134610B90E2004B010BD09B90720FAE751
:10A4700002787B2AFAD101220392002BF2D01A68CB
:10A48000002AEFD0012901D80920ECE70022009230
:10A4900003AA05F0C5FE0028E5D1039B9C42E2D04B
:10A4A000F2E70000F0B587B0144603901F460E4651
:10A4B00029B322B30023156805937B238DF813304D
:10A4C0002A4605AB0DF1130005F0B4FBA8B905ABA6
:10A4D0002A46314603A805F04EFB70B9039B13B121
:10A4E000059B236009E0074B00932A4605AB3146E4
:10A4F000384605F078FE0028F2D007B0F0BD0E20F7
:10A50000FBE700BFB7BD02001FB50C46134610B9EC
:10A510000E2004B010BD09B90720FAE702787A2AA4
:10A52000FAD101220392002BF2D0064A009203AA2C
:10A5300005F076FE0028ECD1039BA34218BF09204A
:10A54000E7E700BF9FBF020013460A4601467A2094
:10A5500005F0FBBAF0B585B00C461F460A9E0546CD
:10A5600010B90E2005B0F0BD09B90720FAE703784D
:10A570008E2BFAD101230393002AF2D0002FF0D0C2
:10A580003B68002BEDD0134603AA05F032FB0028F0
:10A59000E8D100903B4603AA2146284605F040FE3C
:10A5A0000028DFD1002EDCD03368002BD9D0002367
:10A5B000009303AA33462146284605F031FE0028C1
:10A5C000D0D1039B9C4218BF0920CBE72DE9F04175
:10A5D00086B01446039098460E4671B36AB30023C2
:10A5E000156805938E238DF813302A4605AB0DF1BF
:10A5F000130005F01FFBE8B905AB2A46314603A856
:10A6000005F0B9FAB0B9039B13B1059B236011E0C3
:10A610000B4F009705AB2A463146404605F0E3FD57
:10A6200040B9009705AB2A4631460C9805F0DBFD92
:10A630000028EAD006B0BDE8F0810E20FAE700BF9E
:10A6400035FC0200F7B5089E0C461F46054610B9BA
:10A650000E2003B0F0BD09B90720FAE70378882B74
:10A66000FAD101230193002AF2D0002FF0D0002E5E
:10A67000EED0134601AA05F0BCFA0028E9D13B460A
:10A6800001AA2146284605F0E2FA0028E1D1334626
:10A6900001AA2146284605F0DAFA0028D9D1019B03
:10A6A000A34218BF0920D4E713460A460146882072
:10A6B00005F04BBA13B513460C4610B90E2002B084
:10A6C00010BD09B90720FAE70278892AFAD10122D8
:10A6D0000192002BF2D001AA05F08BFA0028EED1EE
:10A6E000019BA34218BF0920E9E713460A46014629
:10A6F000892005F02ABA00007FB50C461E460546A3
:10A7000010B90E2004B070BD09B90720FAE703782C
:10A710008A2BFAD101230393002AF2D01368002B6D
:10A72000EFD00B4B0093134603AA05F079FD0028E8
:10A73000E8D1084B009303AA33462146284605F08A
:10A740006FFD0028DED1039BA34218BF0920D9E783
:10A75000E9C50200A101030001468A2005F0F5B910
:10A7600013460A4601468B2005F0EFB9F0B585B0D7
:10A770000C461F460A9E054610B90E2005B0F0BDD6
:10A7800009B90720FAE703788C2BFAD10123039348
:10A79000002AF2D01368002BEFD0002FEDD03B68D9
:10A7A000002BEAD0002EE8D03368002BE5D0144B04
:10A7B0000093134603AA05F033FD0028DED1114BA8
:10A7C000009303AA3B462146284605F029FD0028B0
:10A7D000D4D10D4B009303AA33462146284605F0F9
:10A7E0001FFD0028CAD10B9B03AA2146284605F06D
:10A7F0002EFA0028C2D1039BA34218BF0920BDE74F
:10A8000007C10200E9C502009FBF020013460A46C5
:10A8100001468C2005F099B913460A4601468D2061
:10A8200005F093B92DE9FF410C469846DDE90A761B
:10A83000054618B90E2004B0BDE8F08109B907201B
:10A84000F9E70378862BFAD101230393002AF1D08C
:10A85000B8F1000FEED0002FECD0002EEAD0D8F8DF
:10A860000030002BE6D03B68002BE3D03368002B90
:10A87000E0D0134603AA05F0BCF90028DBD1114B48
:10A88000009303AA43462146284605F0C9FC002848
:10A89000D1D10D4B009303AA3B462146284605F033
:10A8A000BFFC0028C7D1094B009303AA33462146B9
:10A8B000284605F0B5FC0028BDD1039B9C4218BF7B
:10A8C0000920B8E74FC10200EFC002009FC102009B
:10A8D00013460A460146862005F037B92DE9FF41A7
:10A8E0000C469846DDE90A76054618B90E2004B0F4
:10A8F000BDE8F08109B90720F9E703787F2BFAD189
:10A9000001230393002AF1D0B8F1000FEED0002FFD
:10A91000ECD03B68002BE9D0002EE7D03368002B49
:10A92000E4D0134603AA05F064F90028DFD14346BA
:10A9300003AA2146284605F08AF90028D7D10C4BF6
:10A94000009303AA3B462146284605F069FC0028EF
:10A95000CDD1084B009303AA33462146284605F083
:10A960005FFC0028C3D1039BA34218BF0920BEE7A8
:10A9700085BE0200C1C60200F0B587B01446039040
:10A980001F460E4629B322B30023156805937F2383
:10A990008DF813302A4605AB0DF1130005F04AF986
:10A9A000A8B905AB2A46314603A805F0E4F870B90A
:10A9B000039B13B1059B236009E0074B00932A46D4
:10A9C00005AB3146384605F00EFC0028F2D007B042
:10A9D000F0BD0E20FBE700BF85C60200F7B5089E5C
:10A9E0000C461F46054610B90E2003B0F0BD09B94C
:10A9F0000720FAE70378772BFAD101230193002E81
:10AA0000F2D0134601AA05F022F90028EDD13B4609
:10AA100001AA2146284605F0ECF80028E5D1334686
:10AA200001AA2146284605F012F90028DDD1019B34
:10AA3000A34218BF0920D8E713460A4601467720EB
:10AA400005F083B830B5134685B00C46A8B111B9EE
:10AA5000072005B030BD02786D2AF9D104AA01257E
:10AA600042F8045D0025009505F0DAFB0028F0D1DE
:10AA7000039B9C4218BF0920EBE70E20E9E7F0B5E5
:10AA800085B0144601901E460F4611B90E2005B040
:10AA9000F0BD002AFAD00023156803936D238DF8CA
:10AAA0000B302A4603AB0DF10B0005F0C3F800286C
:10AAB000EDD103AB2A46394601A805F05CF8002821
:10AAC000E5D1019B13B1039B2360E0E7002EDDD0AD
:10AAD00003AB2A463946304601F094FA0028F2D0FA
:10AAE000D5E7000030B5134685B00C46A8B111B9C2
:10AAF000072005B030BD02786C2AF9D104AA0125DF
:10AB000042F8045D064D009505F08AFB0028F0D15F
:10AB1000039BA34218BF0920EBE70E20E9E700BF23
:10AB200007C1020013460A4601466C2005F00DB825
:10AB300030B5134685B00C46A8B111B9072005B051
:10AB400030BD0278702AF9D104AA012542F8045DCB
:10AB5000064D009505F064FB0028F0D1039BA3424D
:10AB600018BF0920EBE70E20E9E700BF11CB020078
:10AB700013460A460146702004F0E7BF30B513467D
:10AB800085B00C46A8B111B9072005B030BD0278D8
:10AB9000712AF9D104AA012542F8045D064D0095F9
:10ABA00005F03EFB0028F0D1039B9C4218BF092012
:10ABB000EBE70E20E9E700BF11CB0200F0B587B04C
:10ABC000144603901F460E4629B322B3002315688E
:10ABD000059371238DF813302A4605AB0DF1130050
:10ABE00005F028F8A8B905AB2A46314603A804F0B9
:10ABF000C2FF70B9039B13B1059B236009E0074BAB
:10AC000000932A4605AB3146384605F0ECFA002899
:10AC1000F2D007B0F0BD0E20FBE700BFC1CA0200B2
:10AC20002DE9FF470D4616469846074620B90E24E3
:10AC3000204604B0BDE8F08709B90724F8E7027898
:10AC40006E2AFAD101220392002EF0D03268002A37
:10AC5000EDD01268002AEAD003AA04F0F8FF0446F7
:10AC60000028E5D10DF10B0303AA2946384604F06C
:10AC7000EEFF04460028DBD19DF80B30012B19D1E3
:10AC8000DFF838A0D6F80090064698F80030B342B6
:10AC900004D8039BAB4218BF0924C9E7CDF800A034
:10ACA00009EB860303AA2946384605F0B9FA18B914
:10ACB0000136EAE73060ECE70446B9E707C1020075
:10ACC00013460A4601466E2004F03FBF2DE9F04FBF
:10ACD00085B00D4690461F46DDF83890064620B9EF
:10ACE0000E24204605B0BDE8F08F09B90724F8E727
:10ACF00003786F2BFAD101230393002AF0D0136855
:10AD0000002BEDD01B68002BEAD0002FE8D03B6869
:10AD1000002BE5D01B68002BE2D04B4603AA04F0C1
:10AD200096FF04460028DCD10DF10B0303AA294647
:10AD3000304604F08CFF04460028D2D19DF80B3039
:10AD4000012B33D1DFF88CB0D8F800A0804699F8F9
:10AD5000003043451BD80DF10B0303AA29463046AA
:10AD600004F075FF04460028BBD19DF80B30012B81
:10AD70002BD1DFF864A0D7F80080074699F800309F
:10AD8000BB4216D8039BAB4218BF0924A9E7CDF8F4
:10AD900000B00AEB880303AA2946304605F040FAC2
:10ADA000044600289DD108F10108D0E7C8F800004A
:10ADB000D1E7CDF800A008EB870303AA2946304667
:10ADC00005F02EFA18B90137D8E73860DAE70446FB
:10ADD00087E700BFDDBB0200EFC0020013460A4652
:10ADE00001466F2004F0B1BEF0B50D4685B01F4698
:10ADF000064640B311B9072005B0F0BD0378902B8B
:10AE0000F9D104AC012344F8043D1346224604F072
:10AE1000F0FE0028F0D10D4B009322463B46294618
:10AE2000304605F0FDF90028E6D100900A9B224645
:10AE30002946304605F0F4F90028DDD1039B9D42F8
:10AE400018BF0920D8E70E20D6E700BFC1CC02000A
:10AE5000F0B587B0144603901F460E4629B322B3BF
:10AE600000231568059390238DF813302A4605AB0F
:10AE70000DF1130004F0DEFEA8B905AB2A463146F9
:10AE800003A804F078FE70B9039B13B1059B2360FF
:10AE900009E0074B00932A4605AB3146384605F0DA
:10AEA000A2F90028F2D007B0F0BD0E20FBE700BFEA
:10AEB0000BCD02007FB50C461D46064610B90E208C
:10AEC00004B070BD09B90720FAE703788F2BFAD1D7
:10AED00001230393002AF2D0002DF0D02B68002B21
:10AEE000EDD0134603AA04F084FE0028E8D1074BF6
:10AEF000009303AA2B462146304605F091F900281D
:10AF0000DED1039BA34218BF0920D9E775CD02000B
:10AF100013460A4601468F2004F017BEF0B585B0EF
:10AF20000C461F460A9E054610B90E2005B0F0BD1E
:10AF300009B90720FAE70378722BFAD101230393AA
:10AF4000002AF2D01368002BEFD0002FEDD03B6821
:10AF5000002BEAD0002EE8D03368002BE5D0104B50
:10AF60000093134603AA05F05BF90028DED10D4BD0
:10AF7000009303AA3B462146284605F051F90028D4
:10AF8000D4D1094B009303AA33462146284605F045
:10AF900047F90028CAD1039B9C4218BF0920C5E786
:10AFA0004FFC020059BC0200F5C8020070B586B023
:10AFB000144603900E4629B322B300231568059367
:10AFC00072238DF813302A4605AB0DF1130004F0FF
:10AFD00031FEA8B905AB2A46314603A804F0CBFDE3
:10AFE00070B9039B13B1059B236009E0064B0093E6
:10AFF0002A4605AB31460A9805F0F5F80028F2D04C
:10B0000006B070BD0E20FBE735FC020013B51346F9
:10B010000C4610B90E2002B010BD09B90720FAE79E
:10B020000278912AFAD101220192002BF2D001AAD2
:10B0300004F0BBFD0028EED1019BA34218BF0920FC
:10B04000E9E713460A460146912004F07EBD40B16F
:10B0500049B10378922B06D1012914BF09200020A1
:10B0600070470E2070470720704713460A46014676
:10B07000922004F06ABD10B4019CA4465DF8044B14
:10B08000604700002DE9FF4116461F46054670B394
:10B090006AB363B303881D2B2BD1D7F80080ADF8BA
:10B0A0000A300022039203AB424631460DF10A00FA
:10B0B00004F08EFD0446B0B903AB42463146281D6C
:10B0C00004F086FD044670B90B4B0093424603AB77
:10B0D000314605F10800FFF7CEFF044618B905F028
:10B0E000A5F9039B3B60204604B0BDE8F0810E2427
:10B0F000F9E70724F7E700BFD5C20200F7B5154608
:10B100001E46044620B31AB313B30388172B21D16C
:10B110003768ADF802300022019201AB3A46294669
:10B120000DF1020004F054FD80B901AB3A46294606
:10B13000201D04F04DFD48B901AB3A46294604F103
:10B14000080004F077FD08B9019B336003B0F0BD3F
:10B150000E20FBE70720F9E72DE9F041164686B0FF
:10B1600098460546002849D0002A47D0002B45D0F4
:10B170000388192B44D1D8F80070ADF80E300022A6
:10B18000049204AB3A4631460DF10E0004F020FD66
:10B190000446D0B904AB3A463146281D04F018FDE8
:10B1A000044690B9174B00933A4604AB314605F17B
:10B1B0000800FFF760FF044638B905A9A88805F024
:10B1C000B3F830B1049BC8F80030204606B0BDE8A3
:10B1D000F081314605980C4E0C4B00933A464FF4E3
:10B1E000967704AB07FB0060FFF745FF20B9A888FE
:10B1F00005F084F80028E5D00446E6E70E24E4E7ED
:10B200000724E2E7E9C3020010E9012085C6020035
:10B21000F0B5154685B01E46044630B32AB323B3B5
:10B220000388122B23D13768ADF80A30002203922D
:10B2300003AB3A4629460DF10A0004F0C9FC90B967
:10B2400003AB3A462946201D04F0C2FC58B9094B0D
:10B2500000933A4603AB294604F10800FFF70BFFC1
:10B2600008B9039B336005B0F0BD0E20FBE7072053
:10B27000F9E700BF9DC50200F0B5154685B01E4632
:10B28000044630B32AB323B303881F2B23D1376876
:10B29000ADF80A300022039203AB3A4629460DF17D
:10B2A0000A0004F095FC90B903AB3A462946201DEC
:10B2B00004F08EFC58B9094B00933A4603AB29467B
:10B2C00004F10800FFF7D7FE08B9039B336005B00F
:10B2D000F0BD0E20FBE70720F9E700BFB9C502006B
:10B2E000F0B5154685B01E46044630B32AB323B3E5
:10B2F00003881A2B23D13768ADF80A300022039255
:10B3000003AB3A4629460DF10A0004F061FC90B9FE
:10B3100003AB3A462946201D04F05AFC58B9094BA4
:10B3200000933A4603AB294604F10800FFF7A3FE59
:10B3300008B9039B336005B0F0BD0E20FBE7072082
:10B34000F9E700BF89C40200F0B5154685B01E4676
:10B35000044630B32AB323B30388102B23D13768B4
:10B36000ADF80A300022039203AB3A4629460DF1AC
:10B370000A0004F02DFC90B903AB3A462946201D83
:10B3800004F026FC58B9094B00933A4603AB294612
:10B3900004F10800FFF76FFE08B9039B336005B0A6
:10B3A000F0BD0E20FBE70720F9E700BF09C502004A
:10B3B0002DE9F041164686B01F46054600283AD0D2
:10B3C000002A38D0002B36D00388112B35D1D7F87E
:10B3D0000080ADF80E300022049204AB42463146A4
:10B3E0000DF10E0004F0F4FB0446C8B904AB42466C
:10B3F0003146281D04F0ECFB044688B9104B00933D
:10B40000424604AB314605F10800FFF734FE04461E
:10B4100030B905A9A88804F087FF28B1049B3B60D8
:10B42000204606B0BDE8F081A88804F067FF002838
:10B43000F4D00446F4E70E24F2E70724F0E700BF57
:10B44000D5C50200F7B515461E46044620B31AB30B
:10B4500013B30388162B21D13768ADF802300022D0
:10B46000019201AB3A4629460DF1020004F0B0FB0F
:10B4700080B901AB3A462946201D04F0A9FB48B922
:10B4800001AB3A46294604F1080004F0D3FB08B9A1
:10B49000019B336003B0F0BD0E20FBE70720F9E706
:10B4A000F0B5144685B01F460546002832D08AB351
:10B4B00083B30388182B2FD13E68ADF80A300022E1
:10B4C000039203AB324621460DF10A0004F080FBE3
:10B4D000F0B92B7BC3F300038DF80930324603AB80
:10B4E0002146281D04F074FB90B90C4B00933246A2
:10B4F00003AB2146A86804F076FE48B903AB324698
:10B5000021460DF1090004F095FB08B9039B3B604F
:10B5100005B0F0BD0E20FBE70720F9E7D3C002001D
:10B520002DE9FF41144698460546B0B3AAB3A3B32C
:10B530000388152B33D1D8F80060ADF80A3000220B
:10B5400003AF03923B46324621460DF10A0004F058
:10B550003FFBF8B9AB7BC3F300038DF809303246EB
:10B560003B462146281D04F033FB98B9009733462B
:10B570002246062105F1080004F08EFC50B93B4636
:10B58000324621460DF1090004F054FB10B9039B2B
:10B59000C8F8003004B0BDE8F0810E20FAE70720BB
:10B5A000F8E7F7B515461F46044660B35AB353B3E0
:10B5B00003881C2B29D13E68ADF80230002201928D
:10B5C00001AB324629460DF1020004F001FBC0B97F
:10B5D00001AB32462946201D04F0FAFA88B901ABC6
:10B5E0003246294604F1080004F024FB48B901ABB7
:10B5F0003246294604F1090004F01CFB08B9019BFE
:10B600003B6003B0F0BD0E20FBE70720F9E7000028
:10B61000F0B5154685B01F460446002838D0002AEC
:10B6200036D0002B34D00388202B33D13E68ADF8C0
:10B630000A300022039203AB324629460DF10A007C
:10B6400004F0C6FA10BB03AB32462946201D04F0B5
:10B65000BFFAD8B903AB3246294604F1080004F01A
:10B66000E9FA98B90C4B0093324603AB294604F132
:10B670000A00FFF700FD48B903AB3246294604F142
:10B68000090004F0D7FA08B9039B3B6005B0F0BD90
:10B690000E20FBE70720F9E705C00200F0B51546CC
:10B6A00085B01E46044630B32AB323B30388142B57
:10B6B00023D13768ADF80A300022039203AB3A4633
:10B6C00029460DF10A0004F083FA90B903AB3A461B
:10B6D0002946201D04F07CFA58B9094B00933A46DC
:10B6E00003AB294604F10800FFF7C5FC08B9039B2A
:10B6F000336005B0F0BD0E20FBE70720F9E700BF7F
:10B70000A5C40200F0B5154685B01E46044630B308
:10B710002AB323B30388132B23D13768ADF80A303B
:10B720000022039203AB3A4629460DF10A0004F0C9
:10B730004FFA90B903AB3A462946201D04F048FA67
:10B7400058B9094B00933A4603AB294604F1080067
:10B75000FFF791FC08B9039B336005B0F0BD0E20E4
:10B76000FBE70720F9E700BF81C50200F0B51546E9
:10B7700085B01E46044630B32AB323B303881E2B7C
:10B7800023D13768ADF80A300022039203AB3A4662
:10B7900029460DF10A0004F01BFA90B903AB3A46B2
:10B7A0002946201D04F014FA58B9094B00933A4673
:10B7B00003AB294604F10800FFF75DFC08B9039BC1
:10B7C000336005B0F0BD0E20FBE70720F9E700BFAE
:10B7D000FDC602002DE9FF411646984605460028A1
:10B7E0003DD0002A3BD0002B39D003881B2B38D109
:10B7F000D8F80070ADF80A300022039203AB3A4645
:10B8000031460DF10A0004F0E3F90446B0B903AB88
:10B810003A463146281D04F0DBF9044670B903AB03
:10B820003A46314605F1080004F004FA044628B906
:10B830002B7A012B06D0039BC8F80030204604B0B9
:10B84000BDE8F081084B00933A4603AB314605F161
:10B850000C00FFF710FC0028EDD00446EEE70E24A4
:10B86000ECE70724EAE700BF59010300F7B51546E6
:10B870001F460446A0B39AB393B30388222B31D159
:10B880003E68ADF802300022019201AB32462946F3
:10B890000DF1020004F09CF900BB01AB32462946D1
:10B8A000201D04F095F9C8B901AB3246294604F1D0
:10B8B000080004F0BFF988B901AB3246294604F10B
:10B8C000090004F0B7F948B901AB3246294604F142
:10B8D0000A0004F0AFF908B9019B3B6003B0F0BD6A
:10B8E0000E20FBE70720F9E7F0B5154685B01E46A8
:10B8F000044630B32AB323B30388212B23D13768FE
:10B90000ADF80A300022039203AB3A4629460DF106
:10B910000A0004F05DF990B903AB3A462946201DB0
:10B9200004F056F958B9094B00933A4603AB29463F
:10B9300004F10800FFF79FFB08B9039B336005B0D3
:10B94000F0BD0E20FBE70720F9E700BF47CD02005E
:10B95000F0B5154685B01E46044630B32AB323B36E
:10B960000388232B23D13768ADF80A3000220392D5
:10B9700003AB3A4629460DF10A0004F029F990B9C3
:10B9800003AB3A462946201D04F022F958B9094B69
:10B9900000933A4603AB294604F10800FFF76BFB1E
:10B9A00008B9039B336005B0F0BD0E20FBE707200C
:10B9B000F9E700BF77CC0200F0B5154685B01E460A
:10B9C000044630B32AB323B30388242B23D137682A
:10B9D000ADF80A300022039203AB3A4629460DF136
:10B9E0000A0004F0F5F890B903AB3A462946201D49
:10B9F00004F0EEF858B9094B00933A4603AB2946D8
:10BA000004F10800FFF737FB08B9039B336005B06A
:10BA1000F0BD0E20FBE70720F9E700BF77CC02005E
:10BA2000F0B5154685B01E46044630B32AB323B39D
:10BA30000388262B23D13768ADF80A300022039201
:10BA400003AB3A4629460DF10A0004F0C1F890B95B
:10BA500003AB3A462946201D04F0BAF858B9094B01
:10BA600000933A4603AB294604F10800FFF703FBB5
:10BA700008B9039B336005B0F0BD0E20FBE707203B
:10BA8000F9E700BFA5CD02002DE9FF4115461E468E
:10BA9000044648B342B33BB30388252B26D137680D
:10BAA000ADF80A3000220DF10C08039243463A46E5
:10BAB00029460DF10A0004F08BF890B943463A4646
:10BAC0002946201D04F084F858B9CDF800803B4683
:10BAD0002A46282104F1080004F0DEF908B9039B86
